:0400000020EF29F0D4
:1052380000F0012EFDD71200000EF86E00014AEFB3
:105248002AF09E9801C0ADFFACB21200FDD7FA0E4D
:1052580000F0E82EFDD7012EFAD71200190EAF6E16
:10526800948C948E240EAC6EB896AB8E12008B9AEA
:105278008994026E640E016E02501CEC29F08B8A30
:105288008984026E640E016E02501CEC29F0120033
:10529800000E926E300E936E000E946E000E956E98
:1052A800000E966E000E846E84CF83FF83CF82FF3C
:1052B80082CF81FF81CF80FF1200000E0B6E780E27
:1052C8000A6E8C9006D0096E000E026E09507CECB6
:1052D8002AF00A06D8A00B060A28D8B40B28D8A4A6
:1052E800F2D73BEC29F08C80120001500302F3CF77
:1052F80005F0F4CF06F001500402F3CFF4FFF36A8F
:10530800F3500526F450062202500302F3CFF4FFAF
:10531800F36AF3500526F450062205C001F006C0D2
:1053280002F012008C90740E226EA70E216E1AECF9
:105338002CF020EE46F0090EEECFDEFFE82EFCD76B
:1053480061EC29F0740E0A6EA70E096E20EE46F085
:1053580010EE0BF0090EDECFE6FFE82EFCD7AFEC1F
:105368002AF0F0D78C905A0E226E3F0E216E1AEC5E
:105378002CF020EE46F0090EEECFDEFFE82EFCD72B
:1053880061EC29F05A0E0A6E3F0E096E20EE46F0C7
:1053980010EE0BF0090EDECFE6FFE82EFCD7AFECDF
:1053A8002AF0F0D70C500B10D8B41AD00D6E010E9D
:1053B8000E6E0D5004D0D8900B360C360E2A0CAE5B
:1053C800FAD70B50095C0C500A58D8A004D00B50DF
:1053D800095E0C500A5AD8900C320B320E2EF1D7B7
:1053E80009C009F00AC00AF0120013D00250F66E84
:1053F800E96E050EEA6E0350EA6403D0EA6EEF50D8
:1054080003D0F76E0800F550016E25EC29F0024A2A
:10541800032A0250F66EE96E050EEA6E0350EA643E
:1054280003D0EA6EEF5003D0F76E0800F55000097C
:10543800D8B41200DBD7000E076E000E066E0450BB
:105448000310D8B41ED0056E010E086E055004D0A6
:10545800D89003360436082A04AEFAD7D890063610
:1054680007360350015C04500258D8A005D00350F9
:10547800015E0450025A0680D89004320332082E86
:10548800EDD706C001F007C002F012004CEC29F07D
:1054980032EC29F04F6E100E016E4F502BEC29F0B4
:1054A8007F0E036EFD0E026EF9EC29F081BA10D062
:1054B8007F0E036EF40E026EF9EC29F07F0E036E78
:1054C8008A0E026EF9EC29F096EC29F000EF00F054
:1054D8007F0E036E9B0E026EF9EC29F07F0E036EB1
:1054E800790E026EF9EC29F0B6EC29F000EF00F025
:1054F800000E066E000E056E000E086E080E076E92
:1055080021D08B9807C003F002C004F0032A02D010
:10551800D8900432032EFCD704A003D08B96899030
:1055280002D08B868980036E010E016E03501CEC3D
:1055380029F08B88036E010E016E03501CEC29F0D4
:10554800054A062A0706D8A008060728D8B4082856
:10555800D8B41200D6D7000E1D6E000E1C6E20EEB9
:105568000FF0DECF14F0DDCF15F0D89015321432DD
:10557800D89015321432D8901532143214C018F05D
:1055880015C019F0000E1B6E000E1A6E0FC016F033
:1055980010C017F013C01CF01D6A02D0094A0A2A6D
:1055A8001C06D8A01D061C28D8B41D28D8A4F6D7D8
:1055B80013C01CF01D6A6FD009C0F6FF0AC0F7FFC0
:1055C8000800F5CF02F07CEC2AF0094A0A2A1A4AA8
:1055D8001B2A1806D8A0190619501810D8A4ECD7F9
:1055E80020EE0FF0DECF14F0DDCF15F0D890153295
:1055F8001432D89015321432D8901532143214C09F
:1056080018F015C019F03BEC29F08C80146EE80EE8
:10561800016E14501CEC29F08C90146E040E016E6F
:1056280014501CEC29F020EE0FF0DECF14F0DDCF83
:1056380015F0D89015321432D89015321432D8900B
:105648001532143214C001F015C002F011C003F075
:1056580012C004F079EC29F001501A5C02501B5872
:10566800D8A004D0000E1B6E000E1A6E20EE0FF0AC
:10567800DECF14F0DDCF15F0D89015321432D89063
:1056880015321432D890153214321C5014241C6E62
:105698001D5015201D6E11501C5C12501D58D8A0AD
:1056A8009BD78972000E1D6E000E1C6E1200000E34
:1056B800186E130E176EA8D02050250AD8B409D03A
:1056C8000FC0D9FF10C0DAFF20C0DFFF0F4A102A31
:1056D8009BD0156E000E1A6E155002D01A8C17D07A
:1056E80011C0F6FF12C0F7FF114A122A0800F5CFC1
:1056F80020F02050000AD8B492D0640AD8B407D059
:105708000D0AD8B404D01C0AD8B4E8D77DD01ABC86
:1057180015D017C0D9FF18C0DAFFDECF1BF0DDCFD8
:105728001CF0020E1726000E18221CAE13D0030E12
:105738001A121B6C1C1ED8B01C2A0CD017C0D9FF1B
:1057480018C0DAFFDECF1BF0DDCF1CF0020E1726E3
:10575800000E1822156E010E206E15502050050AF5
:10576800D8B416D02050020D300EF324F66E5A0E1F
:10577800F420F76E0900F5CF15F00900F5CF16F003
:1057880015501B5C16501C58D8A002D0202AE6D70A
:105798001A50030BD8B408D00FC0D9FF10C0DAFFD5
:1057A8002D0EDF6E0F4A102A20C019F029D019508B
:1057B800020D300EF324F66E5A0EF420F76E09002F
:1057C800F5CF03F00A00F5CF04F01BC001F01CC0B0
:1057D80002F01FEC2AF001C009F002C00AF0000E26
:1057E8000C6E0A0E0B6ED6EC29F00950300F206EA5
:1057F8000FC0D9FF10C0DAFF20C0DFFF0F4A102A00
:1058080019061928D8A4D3D711C0F6FF12C0F7FF7C
:10581800114A122A0800F5CF20F020664DD70FC094
:10582800D9FF10C0DAFF000EDF6E12002A6E0A0ED2
:10583800456E2A502150F66EE96E050EEA6E22502A
:10584800EA6403D0EA6EEF5003D0F76E0800F55013
:105858003E6E3D6A214A222A2150F66EE96E050EF7
:10586800EA6E2250EA6403D0EA6EEF5003D0F76E76
:105878000800F5502A6E2A503D12214A222A21504A
:10588800F66EE96E050EEA6E2250EA6403D0EA6EFF
:10589800EF5003D0F76E0800F5502A6E2A503F6E7D
:1058A800406A214A222A2150F66EE96E050EEA6EF8
:1058B8002250EA6403D0EA6EEF5003D0F76E080076
:1058C800F5502A6E2A502C6E2B6A2B503F122C5002
:1058D8004012214A222A2150F66EE96E050EEA6E20
:1058E8002250EA6403D0EA6EEF5003D0F76E080046
:1058F800F5502A6E2A50416E426A214A222A2150C6
:10590800F66EE96E050EEA6E2250EA6403D0EA6E7E
:10591800EF5003D0F76E0800F5502A6E2A502C6E0F
:105928002B6A2B5041122C50421220EE41F0DECF50
:105938002AF0DDCF2BF0D8902B322A32D8902B3298
:105948002A32D8902B322A322AC001F02BC002F01A
:105958003FC003F040C004F079EC29F00A0E01249E
:10596800436E000E0220446E000E226E000E216E61
:10597800000E106E2D0E0F6E7F0E126EB40E116E8D
:105988003DC013F03EC014F05BEC2BF0000E036E2C
:105998002D0E026EF9EC29F0000E106E2D0E0F6E12
:1059A8007F0E126ECB0E116E3FC013F040C014F084
:1059B8005BEC2BF0000E036E2D0E026EF9EC29F055
:1059C800000E106E2D0E0F6E7F0E126EEA0E116E07
:1059D80041C013F042C014F05BEC2BF0000E036ED4
:1059E8002D0E026EF9EC29F0000E106E2D0E0F6EC2
:1059F8007F0E126EE00E116E43C013F044C014F017
:105A08005BEC2BF0000E036E2D0E026EF9EC29F004
:105A180020EE45F000EE29F0090EDDCFEDFFE82E6F
:105A2800FCD7E92AEA22120001000A006400E80310
:105A3800102755555555000001C20178000000FF98
:105A4800FF0000000000000000000000000000004F
:105A5800000000000000000000000000000000003E
:105A6800000000000000000000000000000000002E
:105A7800000000000000000000000000000000001E
:105A8800000000000000000000000000000000000E
:105A980000000000000000000000000000000000FE
:105AA8000000000000000000000000073A000000AD
:105AB80000000000000000000000000000000000DE
:105AC8000000000000000000DBCC7D60000000004A
:105AD80000000000000000000C01A02000000000F1
:105AE800000000000000DBCC99142000000000003A
:105AF8000000000000D80580002000000000000021
:105B080000000000964439428000000000000000B8
:105B1800000000000000000000000000000000007D
:105B280000001314294A82A0561800000000000043
:105B38000010100002020000100000000000000029
:105B480040000000000001080000000000000047BD
:105B58004478EA9014754800000000000000000036
:105B680000001000000000000000000000D751787D
:105B7800ABD75C21EC000000000000000000000032
:105B8800100000000000000000000000012080104C
:105B980008000400000000000000000300001000DE
:105BA800000000000000000000574028A1514A8A68
:105BB800A60000000000000000080000100000001F
:105BC80000000000000000510120AB1754206C00B9
:105BD800000000000000000B0000100000000000A2
:105BE8000000000000574028EA92143548000000E1
:105BF80000000000501A280A82141548000000000E
:105C0800000000000A000000000000000000000082
:105C18000000514029C2828156180000000000008F
:105C2800000000000000000000000000000000006C
:105C3800000000000000000000000000000000005C
:105C4800180000000000000000000000000092BCE6
:105C58001096D0A42A5AC5A11A5AA000009204107E
:105C680092D0A4224AC4A41A5A800000001000004E
:105C78000000000000000000000000121090929048
:105C8800A0234940948D015000000000000000004E
:105C98000000000000000000000216D096C0B4A169
:105CA80048621AC02028000002069092C084004072
:105CB800220A042028000000000000000000000064
:105CC800000000000000F7C6FC1BC3764633C4E79B
:105CD800EC7DBC0000000000000000000000000097
:105CE80000040000000000000000000000000000A8
:105CF80000000090B41094D0229184AB01120A12D3
:105D08000000928010921080808001000001120033
:105D1800000000000000000000000000000000007B
:105D2800FEFBE6F77B64E07499EEFBCFBF00002C26
:105D38007934032340210008401A49130000000069
:105D480000000000000000000000000000820000C9
:105D5800000010000000000010000000000000001B
:105D6800000000000000000000000010B0D096D82D
:105D780082C09AC29BD25B12400000000000000063
:105D8800000000000000000000000000000000000B
:105D9800000000000000000092B6D09ED89BD25BA5
:105DA80062495B093B200000000000000000000081
:105DB80000000000000000000000000000000000DB
:105DC80000000000009EB0D016D89BD25B624958F4
:105DD800092B2000108010001000000000010000B6
:105DE800000000100000000000000000000000009B
:105DF80000009636C09EC09AD09BC29B525B524010
:105E0800000000000000000000000000000000008A
:105E1800000000000000000000000000000000106A
:105E2800B6D09ED896D496C4B6C4F6A58000000015
:105E3800000000000000000000000000009286D072
:105E480096D896D5B48DB48DA42F0000000000001C
:105E5800000000000000000000000000000000003A
:105E68000000000000000000000092B0D01ED8B66C
:105E780091B4AD611B4B520000000000000000000F
:105E8800000000000000000000000000000000000A
:105E9800000000000000008236D096D8B695E523B1
:105EA8004B52DEA4000000000000000000000000CB
:105EB80000000000000000000000000000000000DA
:105EC8000000000090B0D096D0B4A769621AC5B49B
:105ED8002800000000000000000000000000000092
:105EE80000000000000000000000000000000000AA
:105EF8000092E918B6874B55B13A5AC00000000025
:105F080092E918B4A34BD5A12A1E80000000000016
:105F18000000000000000000000000000000000079
:105F280000000000000000000000000000B2282867
:105F380014020A854140A40000000000F02908145A
:105F48000202804844210000000000002908842241
:105F580010804A05410000000000F02900A0281424
:105F6800020A81480000000000422900A0281422EB
:105F780010880A0000000000000000000000000077
:105F88000000000000000000000000000000000009
:105F980000000000000000000000000000000000F9
:105FA80000000000009E08F39F7BCE35D7CA68002A
:105FB80000000000000000000000000000000000D9
:105FC800000000146040000082000204500000003D
:105FD80000001C78F31D73E79CDB6F700000000065
:105FE80000000000000000000000010000000000A8
:105FF8000000000000000000000000000000009CFD
:1060080078C21D31A71260809A80000000009C7839
:10601800C31D71B51E71C09A800000000000000009
:1060280000000000000000C0000000000070E01D3B
:106038003DF75F7CE71D4000000000000000000005
:10604800000000000040000000009C08D30C301342
:106058000538E34600000000009C08D30D30132DDE
:106068007CE3C620000000000000000000000000E3
:10607800000000000000000079F31F39FBADB8FBF9
:10608800A7C00000000000000000000000000000A1
:1060980000000000000000000000000000000000F8
:1060A8000000000078BD28B42A16225E8F4AC0007E
:1060B80000000000000000000000000000000000D8
:1060C8000000000000000800000400043000000088
:1060D800000A0000000000000000000000000000AE
:1060E80078BC28B168A570A064A140000000000E2B
:1060F8000000000000000000004000000000000058
:106108000000000000010148C00000000018BD2880
:10611800A560A1556BC54A80000000000000000082
:10612800000000000000951E00000078BD28A1595D
:10613800EBD74A8A1400000000000E000820000077
:106148000000000400000000000C00000000000037
:1061580000000138AB0000006CBC20815142821461
:1061680020A100A0000000080000000000000000BE
:106178000300000000007E3D28A1535EA8A1454809
:10618800C27500000000000000000000000000C20E
:1061980055000000000000000000000000000000A2
:1061A80000000060BD28EBD21421EB8A11471E8045
:1061B80000000000000000000000000000000000D7
:1061C80000080028008201550020A415AB800000BB
:1061D80000C0000000000000000411AB80000000B7
:1061E800C00000000000000000000000000084164D
:1061F800A41428A150014E154754055400C456ACA8
:106208001428B1D4054F154754555E00C00000004E
:1062180000000000000000000000006410001428C6
:106228008142144540110A108200A456A0142A8104
:106238005715655815AABAAB008000000000000089
:106248000000000000000000400000000000000006
:10625800000200000000002446ACB42AB4575C25B4
:10626800EABAE0AF5500200000000000000000007E
:106278000000000000000000000000000000000016
:1062880000000000244620942AB5545E30ABC35465
:1062980015AA000000000000000000000000000037
:1062A80000002000ACB422B5554ABA814A8ABAF532
:1062B800400068000000000000000000008040006E
:1062C800000000000000000000014A8000000024D7
:1062D800468C942AB575EB0A0000212F1E60240015
:1062E80004142881044A0A1410A1050A2000000099
:1062F8000000000000000000000000002040AC0486
:106308002A8565E80F40000510A100200000000064
:106318000045E0C0188A5410A1500050AC942A855A
:10632800000001400B5EBAF5502050AC142A8400DE
:10633800000008CF5EBA54502050ACA0000175A0F0
:1063480045C0C000000018005000042A8520A04560
:10635800E0000AAF5A2020020000021420000800C2
:106368000202A80A28A24200D0000002140A100A59
:10637800102A4028004200004014001000140014A5
:10638800001400A24264F302142014200410001028
:10639800A040A0006003C000000000000000000052
:1063A80000A0000000000000000000000000000045
:1063B8000410041028A520A10001450A8802202401
:1063C80056ACB03FFDE5A105EBCF1AAF5E6000000B
:1063D80000000AB564000000000000000060000032
:1063E8000000000000000000000000002416041453
:1063F80008B514A145088A5410210005162C940AE2
:10640800B555EBCF18BAF554210060000000000123
:106418000400000000000000000000000000000070
:1064280000000000000000006406AC1428B5544ABF
:106438008A1410A0051A004446AC142AB5744A8A76
:106448001555A8AF5E000000000000000000000025
:1064580000000000004000000000002000000000D4
:10646800000000000000002DB20014428A00450A16
:1064780080A100C2C6CE00000BB44A8001450010BE
:10648800A00042C0002DB009804A802140041002BB
:10649800000006CE2DB00D804A80A10A54050800E0
:1064A8005A44C00000000000000000000000000086
:1064B80000000000000000000000000000005A80FA
:1064C800000000000000808000000000005A8010DA
:1064D8009B45869486C4B6C4C0000000000B00002B
:1064E800000000000000000000000002EB80836D47
:1064F800B6D49EC2DB5A40000000C000000008026B
:10650800000000000000000000D80A109B0DB090A9
:106518009B0A492DA0000000D80810990006901A7F
:1065280002410920000000000000000FC000002008
:106538000000000000000000000000000000000053
:106548000000000000DC0C109B6DB6D2492DB6D2BD
:1065580048000000000000000000000000000000EB
:106568000000000060909B61B0D249849B5B2400CE
:1065780000000040008100008240048009240000DF
:106588000000000000000100000000000000000002
:10659800DC6C903863F7526DAC9B5BB60000000072
:1065A8000000000030000000000000000000C16C86
:1065B80094DB6F8740412DB6136C00000000080083
:1065C800000D8640000000000000000000000000F0
:1065D80008000000000000000000000D76DA927A42
:1065E8004B6B690FF6D6D800000000600800000069
:1065F8000000000000000000006C76C0826869217D
:10660800B68FBB04D80000006400188068490124D4
:1066180086B1855000000000000000010000000065
:106628000000000000000000000000000000000062
:1066380008000000006D76DAC921B6D64921034169
:1066480000000000000000000000000008D1284001
:106658000000006D26C2C924926B6C8E90900000D9
:10666800000004200009009200248000008000003F
:106678000000000400000000000E000800000000F8
:10668800E10FDFC9B5B26B6ED0000000000000005A
:1066980000C0000000000000000000000000000032
:1066A80000001020000000000000000000101D572E
:1066B800155281C2AAB1C800000000000000000005
:1066C80000010000000000000000000411405552C5
:1066D800105431CAA00000000000E1C000100010F2
:1066E800000000000000000000E41C531D580000DA
:1066F800157FFC000000000000C0011013580000C6
:1067080000000000000000001153145300254C2520
:1067180048000000000001C0000000080000000060
:106728000000000000C41D4010710AA0EA98A300F0
:106738000000000000000000000800000000000049
:10674800000000C43D535439008AA1CA110000005A
:10675800000000E000400008000000000000000009
:1067680000E1F9145439EBE8214A15000000000053
:106778000020044419EA80210A100000000000E407
:10678800A04440195E848280A00000000000A41D7F
:10679800535C314A00CA90A20000000000000000CB
:1067A80000000800000000000000000090315114B3
:1067B80051542504254E000000000000000100008F
:1067C8001000A000000000000000140D5315521422
:1067D80000A747140000000000000000000010207F
:1067E800000000000000000004000000000000009D
:1067F800082000000000006041343490DB2A9A80B1
:106808004800000000000C40342480922A8AA148E5
:106818000000000000800000800000000000000070
:10682800000000000D0495B60A49B0000000000001
:106838000000000000000000000000000000000050
:1068480000006D6490DB6B249000000000000000E5
:106858000000000000000000000000000000000030
:106868006164924935B64000000000000000000055
:1068780004804900124000000000000000000200EF
:1068880000000000000000000000000000EFE4DA53
:10689800D935B76800000000000000006000000063
:1068A800000004000000000000000000008000005C
:1068B800C2800000000000000000400080A000002E
:1068C800800000000000000000587CA4E1406180C6
:1068D80000000000000000005000000000018000DF
:1068E800000000000000005278A4A04070400000A2
:1068F800000000000000007800E0440742000000AB
:1069080000000000005204A4A056F5420000000058
:10691800000000001A04ACA746355600000000002D
:10692800000000000000000000000000000000005F
:10693800000000000000000000000000000000004F
:1069480000C624ACE352563635480000000000006B
:1069580000200000001000000E000000000000D41D
:1069680084AC634240365546000000000000100425
:10697800A0004250001506000000000000D6F4AC4C
:10698800A350163555260000000000005044A0A072
:106998004040005407000000000000505000000074
:1069A80004200025000000000000F0F4A000425080
:1069B8002140010000000000000604AC8352563557
:1069C8005A31000000000000F0F000000000000054
:1069D80000000000000000D090000000000000004F
:1069E8000000000000001670ACE31256355A310062
:1069F80000000000001000A000025031400100001B
:106A080000000000D030ACA34254305425000000F0
:106A1800000000D0300000000034542500000000C1
:106A28000000106400A0424000540700000000006D
:106A380000D604A0E3425630012600000000000002
:106A48001064A0000050101006000000000000169E
:106A580064AC8352563655460000000000000024FE
:106A6800A000425010010A000000000000C604AC5B
:106A7800E3525636354800000000000000000000D0
:106A880000000000000000000000000000000000FE
:106A980000000000000000000000000000000000EE
:106AA80000000000000000000010B04164A5E425CB
:106AB800E4AD64000000000000000004A0A405E4A8
:106AC8008DB400000000002023E1600004000005F0
:106AD800B4000000000026000960A12091B68036AD
:106AE8000000000000000280000006900000020084
:106AF800000000003222BC64218680B6C69B0000DC
:106B080000000000028000000000000000000000FB
:106B18000000361284048132801BC2490000000044
:106B28000030000524A130909B6849000000000057
:106B3800309AE504B5B4D2DB6B6D000000000000AC
:106B48000A80000000000000000000000000000AA9
:106B58000000000000000000000000000002824861
:106B680040009252492924800000000000000000E3
:106B780000000000000010000000000000000000FD
:106B88000000000000100000000030B71D64109BDA
:106B98006B64849B500000000030B61964109B6B36
:106BA80064849B5800000000000000000000000002
:106BB80000001800000000000000000000000000B5
:106BC8000018000000003696FD64909B6864849B62
:106BD800780000000002924840009B68648409180D
:106BE8000000000000000000000000000000180085
:106BF80000000002124840901B6B64841B58000080
:106C08000000B616FD64901B6B64841B50000000E6
:106C1800000000000000000000000010000000005C
:106C28000000000000000000000010000000000646
:106C380086EC6491BFD2492DB6C000000000000068
:106C4800000000000000000000000000000000003C
:106C580000000000000000000000000014970D6410
:106C6800B5B6D2DB6B6D000000000014173D64A5BB
:106C780036D49B6A4900000000003400000001324D
:106C8800849BC049000000000034173D64A0329482
:106C98009AC25B0000000000000000000000000035
:106CA800000B000000000034003064A1A69486C4E4
:106CB8009A000000000034000D64A1A095B684B6C7
:106CC800000000000000000000000014B4848400EC
:106CD8000000000014373D64A5A400000034000043
:106CE80000000014373D64A5A421E48D24000000B1
:106CF800000014152564A52401442F20000000007D
:106D0800000000000000000000000000000000007B
:106D1800000000000000000000000000000000006B
:106D280002A89428C24600000000000000000000ED
:106D380000000001570000000000000000C801A882
:106D48009428A55400000000000000000000000086
:106D58000001000000000000000000C85BA894AA21
:106D6800A53100000000000000000000A81422A5C2
:106D78003180000000000000000000001482A530EF
:106D88008000000000000000C25BA88080252280EF
:106D980000000000000000C259A81420040280006E
:106DA80000000000000000002898A23622800000A1
:106DB8000000000000C25980000000000000000030
:106DC800000000000000000B6007800000000000C9
:106DD8000000000000A56B61248500000000000091
:106DE8000000C85BA54801648100000000000000A5
:106DF80000000000036007800000000000000000A1
:106E080008182441200922000000000000000000AA
:106E180000800C0220000000000000000000C8599B
:106E2800802802A0000000000000000000000025EB
:106E380035400AD400000000000000000000800077
:106E480000E0000000000000000000C85B800002B5
:106E58000000000000000000000000008C4B5A8079
:106E68008400000000000000004819840A508000D7
:106E78000000000000000000481980000000000029
:106E880000000000000000000000000000000000FA
:106E9800000000000000500888000000000000000A
:106EA8000000000000560B983000000000000000B1
:106EB80000000000000000000000000000000000CA
:106EC800000000163B8914795E00000000000000F5
:106ED800000000000010000000000000000000009A
:106EE80000000000002802800000000000000000F0
:106EF800000000180000001000000000000000065C
:106F08003B29CAA8A1561400000000000000000098
:106F18000000000000000000000000000000000069
:106F28000A8215754A000000000000005639CCE8B6
:106F380000000000000000000000000000000BC777
:106F48001420A1000000000000005631C488000091
:106F580000A1000000000000001000000000000078
:106F6800000000000000000000000003D75E20A120
:106F78000000000000000066BBCC88000000000094
:106F88000000000000000000000A8215554A0000B9
:106F980000000000001000000A8200014A00000002
:106FA800000000005609CCE80000001400000000B2
:106FB8000000000000000A28A1561400000000008C
:106FC800000056298848000000000000000000006A
:106FD8000000000018000000000000000000000091
:106FE800103B89D4314C214800000000000000000B
:106FF80000001011442148000000000000000000BB
:107008000000000000000000000000000000000078
:10701800000000000000000000000000000A8C8949
:1070280092AA0000000000000000000D0000EC80A3
:10703800000000000000000000000020800010A8F0
:107048000000000000000000004DAA8C8CC0000069
:10705800000000000000000000000080128C00000A
:10706800000000000000004DAA8008C000000000D9
:1070780000000000000001000084D084000000002F
:1070880000000000004C228EEC0000000000000010
:1070980000000000000000602095000000000000D3
:1070A8000000000000000540000000000000000093
:1070B80000000028880420000000000000000000F4
:1070C80000AC001800600000000000000000000094
:1070D800000280A96000000000000000000000AD70
:1070E80008900100000000000000000000000000FF
:1070F80014090000000000000000000000ACA2809D
:107108000100000000000000000000000000000076
:107118002000000000000000000000AC8A8CAC00D9
:1071280000000000000000000000A800000E600041
:1071380000000000000000000004A20CA0000000F5
:107148000000000000000000081980003000000066
:107158000000000000000000000034700000000083
:107168000000000000004008880420000000000023
:107178000000000000460B98000800000000000016
:1071880000000000000000000000000000000000F7
:107198000000000000001C78000000000000000053
:1071A80000000000001429CA800000000000000050
:1071B80000503BA0002802800002000000000000F0
:1071C800000000180000001A280000000000000657
:1071D8003B2988A8A156100000020000000000000A
:1071E800000000000160005A2800000000000000B4
:1071F8000882157400035000000000005639CCA81E
:107208000000016AA0034A5515708000000008C7F5
:1072180014000003414A000000005631C4880001F0
:10722800456A260000DA300800100000000000005F
:1072380000024D58C0172A0000000001575F45683A
:10724800A0000C8200000066BBCC8800000401E7A7
:10725800C0003AC28F400000000802140000D60F98
:107268001040180000100000080000000000201066
:107278004B0000400000000828A0A7A001B1800032
:107288002D0000162888C8003800040000034B00B1
:1072980055601628884C29F2A22545BA95000500A4
:1072A8000000000008002C802401A00132858340E2
:1072B80010031B641FDC0020000000003000005693
:1072C8002800000000A281451A8D30812A00D06074
:1072D8007000E000002007800000312A00D20F80F3
:1072E800EC1740A62F41105800500000006818C243
:1072F800742A0000000005B4157080F000B02F401B
:1073080000E42A0D454000000000F00820E801B81C
:10731800050A08254580000000EAEB80002988005E
:107328000000000480000000020004CCA801C50A87
:1073380082AE10000000008200000003B8000000C8
:107348000000000000000000000002000000000033
:1073580000000000001444807351950000000000F4
:1073680000000000904000500100000000000000F4
:1073780000000002080000000000000000000000FB
:1073880000000084281351000000000000000000E5
:1073980000022400000000000000000000000000BF
:1073A8009285E14003000000000000000000008218
:1073B80044000800000000000000000000001C005D
:1073C80041808A00000000000000000000800001E9
:1073D80040820000000000000000000000000040A3
:1073E800000000000000000000000008A189C8C2D9
:1073F80000000000000000000000E0000019580034
:107408000000000000000000008010A10110000032
:1074180000000000000000002813034000000000E6
:10742800000000000000000A0004800000000000C6
:1074380000000000000080D00C10000000000000D8
:1074480000000000002A30000400000000000000D6
:1074580000000000107A000000000000000000009A
:107468000000000000010000000000000000000013
:1074780000003800000000000000000000000000CC
:1074880000000000000000000000000000000000F4
:1074980000000000000000000000000000000000E4
:1074A80001B80078000000FFFF00000000000000A5
:1074B80000000000000000000000000000000000C4
:1074C80000000000000000000000100000000000A4
:1074D80000000000000000000000000000000000A4
:1074E8000000000000000000000000000000000094
:1074F8000000000000000000000000000000000084
:107508000000000000010000000000000000000072
:107518000000000000000000000000000000000063
:107528000000000000000000000000000000000053
:107538000000000000000000000000000000000043
:107548000000000000000000000000000000000033
:107558000000000000000000000100000000000022
:107568000000000000000000000000000000000013
:107578000000000000000000000000000000000003
:1075880000000000000000000000000000000000F3
:1075980000000000000000000000000000000000E3
:1075A80000000000000000000000000000000000D3
:1075B80000000000000000000000000000000000C3
:1075C80002000000000000001000000000000000A1
:1075D80000000000000000000000000000000000A3
:1075E8000000000000000000001000000000000083
:1075F8000000000000000000000000002000000063
:107608000000000000000000000000000000000072
:107618000000000000000000000000000000000062
:107628000000000000000000000000000000000052
:107638000000000000000000000000000000000042
:107648000000000000000000000000000000000032
:107658000000000000000000000000000000000022
:107668000000000000000000000000000000000012
:1076780000000000000000000000040000000000FE
:107688000000000000000080000000000000000072
:1076980000000000000000000000000000000000E2
:1076A80000000000000000000000000000000000D2
:1076B80000000000000008000000000000000200B8
:1076C80000000800000000000000000000000000AA
:1076D80000000000000000000000000000000000A2
:1076E8000000000000000000000000000000000092
:1076F8000000000000000020000000000000000062
:107708000000000000004000000000000000000031
:107718000000000000000000000000000000000061
:107728000000000000000000000000000000000051
:107738000000000000000000000000000000000041
:107748000000000000000000000000000000000031
:107758000000000000000000000000000000000021
:107768000000000000000000000000000000000011
:107778000080000000000000000000000000000081
:107788000000000000800000000000000000000071
:1077980000000000000000000000000000000000E1
:1077A80000000000000000000000000001000000D0
:1077B80000000000000000000000000000000000C1
:1077C80000000000000000001000000000000000A1
:1077D80000000000000000000000000000000000A1
:1077E8000000000000000000000000000000000091
:1077F8000000000000000000000000000000000081
:10780800000000000000040000000000000000006C
:107818000000000000000000000000000000000060
:107828000000000000000000000000000000000050
:107838000000000000000020000000000000000020
:1078480000004000000000000000000000000000F0
:107858000000000000000000000000000000000020
:107868000000000000000000000000000000000010
:1078780000000040000000000000000000000000C0
:1078880000000000000000000000000000000000F0
:1078980000000000000000000000000000000000E0
:1078A80000000000000100000000000000000000CF
:1078B80000000001020000000000000000000000BD
:1078C80000000200000000000000000000000000AE
:1078D80000000000000000000000000000000000A0
:1078E8000000000000000000000000000000000090
:1078F8000000000000000000000000000000000080
:10790800000000000400000000000000000000006B
:10791800000000000000000000000000000000005F
:10792800000000000004000000000000000000004B
:107938000000000000000000000000000000080037
:10794800000000000000000000000000000000002F
:10795800000000000000000000000000000000001F
:10796800000000000000000000000000000000000F
:10797800000000000000000000008000000000007F
:1079880000000000000000000000000000000000EF
:1079980000000000000000000000000000000000DF
:1079A80000000000000000000000000000000000CF
:1079B800000000000000000000000020000000009F
:1079C80000000000000000000000000000000000AF
:1079D800000000000000000000000000000000009F
:1079E800000000000000000000000000000000008F
:1079F800000000000000020000000000014000003C
:107A080000000000000000000000000080000000EE
:107A1800000000000000000000000000000000005E
:107A2800000000000000000000000000000000004E
:107A38000000000000000000000000000800000036
:107A4800000000000000000000000000000000002E
:107A5800000000000000000000000000000000001E
:107A6800000000000000000000000000000000000E
:107A780000000000000000000000000000000000FE
:107A880000000000000000000000000000000000EE
:107A980000000000000000000000000000000000DE
:107AA80000000000000000000000000000000000CE
:107AB800000000000000000000200000000000009E
:107AC80000000000000000000000000000000000AE
:107AD800000000000000000000002000000000007E
:107AE800000000000000000000000000000002008C
:107AF800000000000000000000000000000000007E
:107B0800000000000000000000000000000000006D
:107B1800000000000000000000000000000000005D
:107B28000000000000000000000004000000000049
:107B3800000000000000000000000000000000003D
:107B4800000000000000000000000000000000002D
:107B5800000000000000000000000000000000001D
:107B680000000000400000000000000800000000C5
:107B780000000000000000000000000000000000FD
:107B880000000000000000000000000000000000ED
:107B980000000000000000000000000000000000DD
:107BA80000000000000000100000000000000000BD
:107BB80000000000000000000000000000000000BD
:107BC80000000000000000000000000000000000AD
:107BD800000000000000000000000000000000009D
:107BE800000000000000000040000000000000004D
:107BF80000000000000000800000000000000000FD
:107C0800000000000000000000000000000000006C
:107C1800000000000000000000000000000000005C
:107C2800000000000000000000000000000000004C
:107C3800000000000000000000000000000000003C
:107C4800000000000000000000000000000000002C
:107C5800000000000000000000000000000000001C
:107C6800000000000000000000000000000000000C
:107C7800000080000000000000000000000000007C
:107C880001000000000000000000000000000000EB
:107C9800000000000040000000000000000000009C
:107CA80000000000000000000000000000000000CC
:107CB80000000000000000000000000000000000BC
:107CC800000080000000000000000000000000002C
:107CD800000000000000000000000000000000009C
:107CE800000000000000000000000000000000008C
:107CF800000000020000000000000000000000007A
:107D08000000040000000000000000000000000067
:107D1800000000000000000000000000000000005B
:107D2800000000000000000000000000000000004B
:107D38000000000000000002000000001000000029
:107D4800000000000000000000000000000000002B
:107D58000000000000000000000000000000000417
:107D680000000000000000000000000000000E00FD
:107D780000000000000000000000000000040000F7
:107D880000000000000000000000000000000000EB
:107D980000000000000000000000000000000000DB
:107DA80000000000000000000000000000000000CB
:107DB80000000000000000000000000000000000BB
:107DC80000000000000000000000000000000000AB
:107DD8000100000000000000000000000000000199
:107DE800000000000000000000000000000001008A
:107DF80000000020000000000000000000038000D8
:107E08000000000000000000000000000100000069
:107E1800000000000000000000000000000000005A
:107E28000000000000000000000000000000020048
:107E3800000000000000000000000000000000003A
:107E4800000000000000000000000000000000002A
:107E5800000000000000000000000000000000001A
:107E6800000000000000000000000000000000000A
:107E780000000000000000000000000000000000FA
:107E880000000000000000000000000000000000EA
:107E980000000000000000000000000000000000DA
:107EA80000000000000000000000000000000000CA
:107EB80000000000000000000000000008000000B2
:107EC80000000000000000000000001F000000008B
:107ED8000000000000000000000008000000000092
:107EE800000000000000000000000000000000008A
:107EF800002000000000000000000000000000005A
:107F08000000000000000000000000000000000069
:107F18000000200000000000000000000000000039
:107F28000000000000000000000000000000000049
:107F38000000000000000000000000000000000039
:107F48000000000000000000000000000000000029
:107F58000000000000000000000000000000000019
:107F68000000000000000000000000000000000009
:107F7800004C415442626974732E4C415442340D92
:107F88000A004C415442626974732E4C4154423584
:107F98000D0A0043697479204E696768740D0A00F8
:107FA8006E5F626974732025640D0A006E20626931
:107FB80074732025750D0A00776964746820256438
:107FC8000D0A0077696474682025750D0A007369C5
:107FD8007A653A25640D0A0073697A652025750D5E
:107FE8000A00686967682025750D0A005374617274
:087FF80074200D0A002E0000A8
:020000040020DA
:08000000FFFFFFFFFFFFFFFF00
:020000040030CA
:0E000000FF02011EFF8181FF0FC00FE00F40C5
:00000001FF
